{
  "_format": "hh-sol-artifact-1",
  "contractName": "RAPDAOToken",
  "sourceName": "contracts/RAPDAOToken.sol",
  "abi": [
    {
      "inputs": [
        {
          "internalType": "address",
          "name": "initialOwner",
          "type": "address"
        }
      ],
      "stateMutability": "nonpayable",
      "type": "constructor"
    },
    {
      "inputs": [
        {
          "internalType": "address",
          "name": "spender",
          "type": "address"
        },
        {
          "internalType": "uint256",
          "name": "allowance",
          "type": "uint256"
        },
        {
          "internalType": "uint256",
          "name": "needed",
          "type": "uint256"
        }
      ],
      "name": "ERC20InsufficientAllowance",
      "type": "error"
    },
    {
      "inputs": [
        {
          "internalType": "address",
          "name": "sender",
          "type": "address"
        },
        {
          "internalType": "uint256",
          "name": "balance",
          "type": "uint256"
        },
        {
          "internalType": "uint256",
          "name": "needed",
          "type": "uint256"
        }
      ],
      "name": "ERC20InsufficientBalance",
      "type": "error"
    },
    {
      "inputs": [
        {
          "internalType": "address",
          "name": "approver",
          "type": "address"
        }
      ],
      "name": "ERC20InvalidApprover",
      "type": "error"
    },
    {
      "inputs": [
        {
          "internalType": "address",
          "name": "receiver",
          "type": "address"
        }
      ],
      "name": "ERC20InvalidReceiver",
      "type": "error"
    },
    {
      "inputs": [
        {
          "internalType": "address",
          "name": "sender",
          "type": "address"
        }
      ],
      "name": "ERC20InvalidSender",
      "type": "error"
    },
    {
      "inputs": [
        {
          "internalType": "address",
          "name": "spender",
          "type": "address"
        }
      ],
      "name": "ERC20InvalidSpender",
      "type": "error"
    },
    {
      "inputs": [
        {
          "internalType": "address",
          "name": "owner",
          "type": "address"
        }
      ],
      "name": "OwnableInvalidOwner",
      "type": "error"
    },
    {
      "inputs": [
        {
          "internalType": "address",
          "name": "account",
          "type": "address"
        }
      ],
      "name": "OwnableUnauthorizedAccount",
      "type": "error"
    },
    {
      "anonymous": false,
      "inputs": [
        {
          "indexed": true,
          "internalType": "address",
          "name": "owner",
          "type": "address"
        },
        {
          "indexed": true,
          "internalType": "address",
          "name": "spender",
          "type": "address"
        },
        {
          "indexed": false,
          "internalType": "uint256",
          "name": "value",
          "type": "uint256"
        }
      ],
      "name": "Approval",
      "type": "event"
    },
    {
      "anonymous": false,
      "inputs": [
        {
          "indexed": true,
          "internalType": "address",
          "name": "previousOwner",
          "type": "address"
        },
        {
          "indexed": true,
          "internalType": "address",
          "name": "newOwner",
          "type": "address"
        }
      ],
      "name": "OwnershipTransferred",
      "type": "event"
    },
    {
      "anonymous": false,
      "inputs": [
        {
          "indexed": true,
          "internalType": "address",
          "name": "from",
          "type": "address"
        },
        {
          "indexed": false,
          "internalType": "uint256",
          "name": "amount",
          "type": "uint256"
        }
      ],
      "name": "TokensBurned",
      "type": "event"
    },
    {
      "anonymous": false,
      "inputs": [
        {
          "indexed": true,
          "internalType": "address",
          "name": "to",
          "type": "address"
        },
        {
          "indexed": false,
          "internalType": "uint256",
          "name": "amount",
          "type": "uint256"
        }
      ],
      "name": "TokensMinted",
      "type": "event"
    },
    {
      "anonymous": false,
      "inputs": [
        {
          "indexed": true,
          "internalType": "address",
          "name": "from",
          "type": "address"
        },
        {
          "indexed": true,
          "internalType": "address",
          "name": "to",
          "type": "address"
        },
        {
          "indexed": false,
          "internalType": "uint256",
          "name": "value",
          "type": "uint256"
        }
      ],
      "name": "Transfer",
      "type": "event"
    },
    {
      "inputs": [
        {
          "internalType": "address",
          "name": "owner",
          "type": "address"
        },
        {
          "internalType": "address",
          "name": "spender",
          "type": "address"
        }
      ],
      "name": "allowance",
      "outputs": [
        {
          "internalType": "uint256",
          "name": "",
          "type": "uint256"
        }
      ],
      "stateMutability": "view",
      "type": "function"
    },
    {
      "inputs": [
        {
          "internalType": "address",
          "name": "spender",
          "type": "address"
        },
        {
          "internalType": "uint256",
          "name": "value",
          "type": "uint256"
        }
      ],
      "name": "approve",
      "outputs": [
        {
          "internalType": "bool",
          "name": "",
          "type": "bool"
        }
      ],
      "stateMutability": "nonpayable",
      "type": "function"
    },
    {
      "inputs": [
        {
          "internalType": "address",
          "name": "account",
          "type": "address"
        }
      ],
      "name": "balanceOf",
      "outputs": [
        {
          "internalType": "uint256",
          "name": "",
          "type": "uint256"
        }
      ],
      "stateMutability": "view",
      "type": "function"
    },
    {
      "inputs": [
        {
          "internalType": "uint256",
          "name": "amount",
          "type": "uint256"
        }
      ],
      "name": "burn",
      "outputs": [],
      "stateMutability": "nonpayable",
      "type": "function"
    },
    {
      "inputs": [
        {
          "internalType": "address",
          "name": "from",
          "type": "address"
        },
        {
          "internalType": "uint256",
          "name": "amount",
          "type": "uint256"
        }
      ],
      "name": "burnFrom",
      "outputs": [],
      "stateMutability": "nonpayable",
      "type": "function"
    },
    {
      "inputs": [],
      "name": "decimals",
      "outputs": [
        {
          "internalType": "uint8",
          "name": "",
          "type": "uint8"
        }
      ],
      "stateMutability": "pure",
      "type": "function"
    },
    {
      "inputs": [],
      "name": "maxSupply",
      "outputs": [
        {
          "internalType": "uint256",
          "name": "",
          "type": "uint256"
        }
      ],
      "stateMutability": "pure",
      "type": "function"
    },
    {
      "inputs": [
        {
          "internalType": "address",
          "name": "to",
          "type": "address"
        },
        {
          "internalType": "uint256",
          "name": "amount",
          "type": "uint256"
        }
      ],
      "name": "mint",
      "outputs": [],
      "stateMutability": "nonpayable",
      "type": "function"
    },
    {
      "inputs": [],
      "name": "name",
      "outputs": [
        {
          "internalType": "string",
          "name": "",
          "type": "string"
        }
      ],
      "stateMutability": "view",
      "type": "function"
    },
    {
      "inputs": [],
      "name": "owner",
      "outputs": [
        {
          "internalType": "address",
          "name": "",
          "type": "address"
        }
      ],
      "stateMutability": "view",
      "type": "function"
    },
    {
      "inputs": [],
      "name": "renounceOwnership",
      "outputs": [],
      "stateMutability": "nonpayable",
      "type": "function"
    },
    {
      "inputs": [],
      "name": "symbol",
      "outputs": [
        {
          "internalType": "string",
          "name": "",
          "type": "string"
        }
      ],
      "stateMutability": "view",
      "type": "function"
    },
    {
      "inputs": [],
      "name": "totalSupply",
      "outputs": [
        {
          "internalType": "uint256",
          "name": "",
          "type": "uint256"
        }
      ],
      "stateMutability": "view",
      "type": "function"
    },
    {
      "inputs": [
        {
          "internalType": "address",
          "name": "to",
          "type": "address"
        },
        {
          "internalType": "uint256",
          "name": "value",
          "type": "uint256"
        }
      ],
      "name": "transfer",
      "outputs": [
        {
          "internalType": "bool",
          "name": "",
          "type": "bool"
        }
      ],
      "stateMutability": "nonpayable",
      "type": "function"
    },
    {
      "inputs": [
        {
          "internalType": "address",
          "name": "from",
          "type": "address"
        },
        {
          "internalType": "address",
          "name": "to",
          "type": "address"
        },
        {
          "internalType": "uint256",
          "name": "value",
          "type": "uint256"
        }
      ],
      "name": "transferFrom",
      "outputs": [
        {
          "internalType": "bool",
          "name": "",
          "type": "bool"
        }
      ],
      "stateMutability": "nonpayable",
      "type": "function"
    },
    {
      "inputs": [
        {
          "internalType": "address",
          "name": "newOwner",
          "type": "address"
        }
      ],
      "name": "transferOwnership",
      "outputs": [],
      "stateMutability": "nonpayable",
      "type": "function"
    }
  ],
  "bytecode": "0x60806040523480156200001157600080fd5b506040516200126238038062001262833981016040819052620000349162000311565b806040518060400160405280600c81526020016b2920a82220a7902a37b5b2b760a11b8152506040518060400160405280600381526020016205241560ec1b8152508160039081620000879190620003e8565b506004620000968282620003e8565b5050506001600160a01b038116620000c957604051631e4fbdf760e01b8152600060048201526024015b60405180910390fd5b620000d4816200014e565b506000620000e56012600a620005c9565b620000f49062989680620005da565b9050620001028282620001a0565b816001600160a01b03167f3f2c9d57c068687834f0de942a9babb9e5acab57d516d3480a3c16ee165a4273826040516200013e91815260200190565b60405180910390a250506200060a565b600580546001600160a01b038381166001600160a01b0319831681179093556040519116919082907f8be0079c531659141344cd1fd0a4f28419497f9722a3daafe3b4186f6b6457e090600090a35050565b6001600160a01b038216620001cc5760405163ec442f0560e01b815260006004820152602401620000c0565b620001da60008383620001de565b5050565b6001600160a01b0383166200020d578060026000828254620002019190620005f4565b90915550620002819050565b6001600160a01b03831660009081526020819052604090205481811015620002625760405163391434e360e21b81526001600160a01b03851660048201526024810182905260448101839052606401620000c0565b6001600160a01b03841660009081526020819052604090209082900390555b6001600160a01b0382166200029f57600280548290039055620002be565b6001600160a01b03821660009081526020819052604090208054820190555b816001600160a01b0316836001600160a01b03167fddf252ad1be2c89b69c2b068fc378daa952ba7f163c4a11628f55a4df523b3ef836040516200030491815260200190565b60405180910390a3505050565b6000602082840312156200032457600080fd5b81516001600160a01b03811681146200033c57600080fd5b9392505050565b634e487b7160e01b600052604160045260246000fd5b600181811c908216806200036e57607f821691505b6020821081036200038f57634e487b7160e01b600052602260045260246000fd5b50919050565b601f821115620003e357600081815260208120601f850160051c81016020861015620003be5750805b601f850160051c820191505b81811015620003df57828155600101620003ca565b5050505b505050565b81516001600160401b0381111562000404576200040462000343565b6200041c8162000415845462000359565b8462000395565b602080601f8311600181146200045457600084156200043b5750858301515b600019600386901b1c1916600185901b178555620003df565b600085815260208120601f198616915b82811015620004855788860151825594840194600190910190840162000464565b5085821015620004a45787850151600019600388901b60f8161c191681555b5050505050600190811b01905550565b634e487b7160e01b600052601160045260246000fd5b600181815b808511156200050b578160001904821115620004ef57620004ef620004b4565b80851615620004fd57918102915b93841c9390800290620004cf565b509250929050565b6000826200052457506001620005c3565b816200053357506000620005c3565b81600181146200054c5760028114620005575762000577565b6001915050620005c3565b60ff8411156200056b576200056b620004b4565b50506001821b620005c3565b5060208310610133831016604e8410600b84101617156200059c575081810a620005c3565b620005a88383620004ca565b8060001904821115620005bf57620005bf620004b4565b0290505b92915050565b60006200033c60ff84168362000513565b8082028115828204841417620005c357620005c3620004b4565b80820180821115620005c357620005c3620004b4565b610c48806200061a6000396000f3fe608060405234801561001057600080fd5b50600436106101005760003560e01c8063715018a611610097578063a9059cbb11610066578063a9059cbb14610209578063d5abeb011461021c578063dd62ed3e14610224578063f2fde38b1461025d57600080fd5b8063715018a6146101cb57806379cc6790146101d35780638da5cb5b146101e657806395d89b411461020157600080fd5b8063313ce567116100d3578063313ce5671461016b57806340c10f191461017a57806342966c681461018f57806370a08231146101a257600080fd5b806306fdde0314610105578063095ea7b31461012357806318160ddd1461014657806323b872dd14610158575b600080fd5b61010d610270565b60405161011a9190610967565b60405180910390f35b6101366101313660046109d1565b610302565b604051901515815260200161011a565b6002545b60405190815260200161011a565b6101366101663660046109fb565b61031c565b6040516012815260200161011a565b61018d6101883660046109d1565b610340565b005b61018d61019d366004610a37565b610468565b61014a6101b0366004610a50565b6001600160a01b031660009081526020819052604090205490565b61018d6104aa565b61018d6101e13660046109d1565b6104be565b6005546040516001600160a01b03909116815260200161011a565b61010d61050e565b6101366102173660046109d1565b61051d565b61014a61052b565b61014a610232366004610a72565b6001600160a01b03918216600090815260016020908152604080832093909416825291909152205490565b61018d61026b366004610a50565b61054b565b60606003805461027f90610aa5565b80601f01602080910402602001604051908101604052809291908181526020018280546102ab90610aa5565b80156102f85780601f106102cd576101008083540402835291602001916102f8565b820191906000526020600020905b8154815290600101906020018083116102db57829003601f168201915b5050505050905090565b600033610310818585610589565b60019150505b92915050565b60003361032a85828561059b565b61033585858561061a565b506001949350505050565b610348610679565b6001600160a01b0382166103a35760405162461bcd60e51b815260206004820152601b60248201527f43616e6e6f74206d696e7420746f207a65726f2061646472657373000000000060448201526064015b60405180910390fd5b6103af6012600a610bd9565b6103bc9062989680610be8565b816103c660025490565b6103d09190610bff565b11156104175760405162461bcd60e51b815260206004820152601660248201527545786365656473206d6178696d756d20737570706c7960501b604482015260640161039a565b61042182826106a6565b816001600160a01b03167f3f2c9d57c068687834f0de942a9babb9e5acab57d516d3480a3c16ee165a42738260405161045c91815260200190565b60405180910390a25050565b61047233826106e0565b60405181815233907ffd38818f5291bf0bb3a2a48aadc06ba8757865d1dabd804585338aab3009dcb69060200160405180910390a250565b6104b2610679565b6104bc6000610716565b565b6104c982338361059b565b6104d382826106e0565b816001600160a01b03167ffd38818f5291bf0bb3a2a48aadc06ba8757865d1dabd804585338aab3009dcb68260405161045c91815260200190565b60606004805461027f90610aa5565b60003361031081858561061a565b60006105396012600a610bd9565b6105469062989680610be8565b905090565b610553610679565b6001600160a01b03811661057d57604051631e4fbdf760e01b81526000600482015260240161039a565b61058681610716565b50565b6105968383836001610768565b505050565b6001600160a01b03838116600090815260016020908152604080832093861683529290522054600019811015610614578181101561060557604051637dc7a0d960e11b81526001600160a01b0384166004820152602481018290526044810183905260640161039a565b61061484848484036000610768565b50505050565b6001600160a01b03831661064457604051634b637e8f60e11b81526000600482015260240161039a565b6001600160a01b03821661066e5760405163ec442f0560e01b81526000600482015260240161039a565b61059683838361083d565b6005546001600160a01b031633146104bc5760405163118cdaa760e01b815233600482015260240161039a565b6001600160a01b0382166106d05760405163ec442f0560e01b81526000600482015260240161039a565b6106dc6000838361083d565b5050565b6001600160a01b03821661070a57604051634b637e8f60e11b81526000600482015260240161039a565b6106dc8260008361083d565b600580546001600160a01b038381166001600160a01b0319831681179093556040519116919082907f8be0079c531659141344cd1fd0a4f28419497f9722a3daafe3b4186f6b6457e090600090a35050565b6001600160a01b0384166107925760405163e602df0560e01b81526000600482015260240161039a565b6001600160a01b0383166107bc57604051634a1406b160e11b81526000600482015260240161039a565b6001600160a01b038085166000908152600160209081526040808320938716835292905220829055801561061457826001600160a01b0316846001600160a01b03167f8c5be1e5ebec7d5bd14f71427d1e84f3dd0314c0f7b2291e5b200ac8c7c3b9258460405161082f91815260200190565b60405180910390a350505050565b6001600160a01b03831661086857806002600082825461085d9190610bff565b909155506108da9050565b6001600160a01b038316600090815260208190526040902054818110156108bb5760405163391434e360e21b81526001600160a01b0385166004820152602481018290526044810183905260640161039a565b6001600160a01b03841660009081526020819052604090209082900390555b6001600160a01b0382166108f657600280548290039055610915565b6001600160a01b03821660009081526020819052604090208054820190555b816001600160a01b0316836001600160a01b03167fddf252ad1be2c89b69c2b068fc378daa952ba7f163c4a11628f55a4df523b3ef8360405161095a91815260200190565b60405180910390a3505050565b600060208083528351808285015260005b8181101561099457858101830151858201604001528201610978565b506000604082860101526040601f19601f8301168501019250505092915050565b80356001600160a01b03811681146109cc57600080fd5b919050565b600080604083850312156109e457600080fd5b6109ed836109b5565b946020939093013593505050565b600080600060608486031215610a1057600080fd5b610a19846109b5565b9250610a27602085016109b5565b9150604084013590509250925092565b600060208284031215610a4957600080fd5b5035919050565b600060208284031215610a6257600080fd5b610a6b826109b5565b9392505050565b60008060408385031215610a8557600080fd5b610a8e836109b5565b9150610a9c602084016109b5565b90509250929050565b600181811c90821680610ab957607f821691505b602082108103610ad957634e487b7160e01b600052602260045260246000fd5b50919050565b634e487b7160e01b600052601160045260246000fd5b600181815b80851115610b30578160001904821115610b1657610b16610adf565b80851615610b2357918102915b93841c9390800290610afa565b509250929050565b600082610b4757506001610316565b81610b5457506000610316565b8160018114610b6a5760028114610b7457610b90565b6001915050610316565b60ff841115610b8557610b85610adf565b50506001821b610316565b5060208310610133831016604e8410600b8410161715610bb3575081810a610316565b610bbd8383610af5565b8060001904821115610bd157610bd1610adf565b029392505050565b6000610a6b60ff841683610b38565b808202811582820484141761031657610316610adf565b8082018082111561031657610316610adf56fea2646970667358221220c39ddc216a88354b906a2e829967c822b5814bfe948de22b4ae61ba47f23229f64736f6c63430008140033",
  "linkReferences": {},
  "deployedLinkReferences": {}
}