{
  "_format": "hh-sol-artifact-1",
  "contractName": "RAPDAOToken",
  "sourceName": "contracts/RAPDAOToken.sol",
  "abi": [
    {
      "inputs": [
        {
          "internalType": "address",
          "name": "initialOwner",
          "type": "address"
        }
      ],
      "stateMutability": "nonpayable",
      "type": "constructor"
    },
    {
      "inputs": [
        {
          "internalType": "address",
          "name": "spender",
          "type": "address"
        },
        {
          "internalType": "uint256",
          "name": "allowance",
          "type": "uint256"
        },
        {
          "internalType": "uint256",
          "name": "needed",
          "type": "uint256"
        }
      ],
      "name": "ERC20InsufficientAllowance",
      "type": "error"
    },
    {
      "inputs": [
        {
          "internalType": "address",
          "name": "sender",
          "type": "address"
        },
        {
          "internalType": "uint256",
          "name": "balance",
          "type": "uint256"
        },
        {
          "internalType": "uint256",
          "name": "needed",
          "type": "uint256"
        }
      ],
      "name": "ERC20InsufficientBalance",
      "type": "error"
    },
    {
      "inputs": [
        {
          "internalType": "address",
          "name": "approver",
          "type": "address"
        }
      ],
      "name": "ERC20InvalidApprover",
      "type": "error"
    },
    {
      "inputs": [
        {
          "internalType": "address",
          "name": "receiver",
          "type": "address"
        }
      ],
      "name": "ERC20InvalidReceiver",
      "type": "error"
    },
    {
      "inputs": [
        {
          "internalType": "address",
          "name": "sender",
          "type": "address"
        }
      ],
      "name": "ERC20InvalidSender",
      "type": "error"
    },
    {
      "inputs": [
        {
          "internalType": "address",
          "name": "spender",
          "type": "address"
        }
      ],
      "name": "ERC20InvalidSpender",
      "type": "error"
    },
    {
      "inputs": [
        {
          "internalType": "address",
          "name": "owner",
          "type": "address"
        }
      ],
      "name": "OwnableInvalidOwner",
      "type": "error"
    },
    {
      "inputs": [
        {
          "internalType": "address",
          "name": "account",
          "type": "address"
        }
      ],
      "name": "OwnableUnauthorizedAccount",
      "type": "error"
    },
    {
      "anonymous": false,
      "inputs": [
        {
          "indexed": true,
          "internalType": "address",
          "name": "owner",
          "type": "address"
        },
        {
          "indexed": true,
          "internalType": "address",
          "name": "spender",
          "type": "address"
        },
        {
          "indexed": false,
          "internalType": "uint256",
          "name": "value",
          "type": "uint256"
        }
      ],
      "name": "Approval",
      "type": "event"
    },
    {
      "anonymous": false,
      "inputs": [
        {
          "indexed": true,
          "internalType": "address",
          "name": "previousOwner",
          "type": "address"
        },
        {
          "indexed": true,
          "internalType": "address",
          "name": "newOwner",
          "type": "address"
        }
      ],
      "name": "OwnershipTransferred",
      "type": "event"
    },
    {
      "anonymous": false,
      "inputs": [
        {
          "indexed": true,
          "internalType": "address",
          "name": "from",
          "type": "address"
        },
        {
          "indexed": false,
          "internalType": "uint256",
          "name": "amount",
          "type": "uint256"
        }
      ],
      "name": "TokensBurned",
      "type": "event"
    },
    {
      "anonymous": false,
      "inputs": [
        {
          "indexed": true,
          "internalType": "address",
          "name": "to",
          "type": "address"
        },
        {
          "indexed": false,
          "internalType": "uint256",
          "name": "amount",
          "type": "uint256"
        }
      ],
      "name": "TokensMinted",
      "type": "event"
    },
    {
      "anonymous": false,
      "inputs": [
        {
          "indexed": true,
          "internalType": "address",
          "name": "from",
          "type": "address"
        },
        {
          "indexed": true,
          "internalType": "address",
          "name": "to",
          "type": "address"
        },
        {
          "indexed": false,
          "internalType": "uint256",
          "name": "value",
          "type": "uint256"
        }
      ],
      "name": "Transfer",
      "type": "event"
    },
    {
      "inputs": [
        {
          "internalType": "address",
          "name": "owner",
          "type": "address"
        },
        {
          "internalType": "address",
          "name": "spender",
          "type": "address"
        }
      ],
      "name": "allowance",
      "outputs": [
        {
          "internalType": "uint256",
          "name": "",
          "type": "uint256"
        }
      ],
      "stateMutability": "view",
      "type": "function"
    },
    {
      "inputs": [
        {
          "internalType": "address",
          "name": "spender",
          "type": "address"
        },
        {
          "internalType": "uint256",
          "name": "value",
          "type": "uint256"
        }
      ],
      "name": "approve",
      "outputs": [
        {
          "internalType": "bool",
          "name": "",
          "type": "bool"
        }
      ],
      "stateMutability": "nonpayable",
      "type": "function"
    },
    {
      "inputs": [
        {
          "internalType": "address",
          "name": "account",
          "type": "address"
        }
      ],
      "name": "balanceOf",
      "outputs": [
        {
          "internalType": "uint256",
          "name": "",
          "type": "uint256"
        }
      ],
      "stateMutability": "view",
      "type": "function"
    },
    {
      "inputs": [
        {
          "internalType": "uint256",
          "name": "amount",
          "type": "uint256"
        }
      ],
      "name": "burn",
      "outputs": [],
      "stateMutability": "nonpayable",
      "type": "function"
    },
    {
      "inputs": [
        {
          "internalType": "address",
          "name": "from",
          "type": "address"
        },
        {
          "internalType": "uint256",
          "name": "amount",
          "type": "uint256"
        }
      ],
      "name": "burnFrom",
      "outputs": [],
      "stateMutability": "nonpayable",
      "type": "function"
    },
    {
      "inputs": [],
      "name": "decimals",
      "outputs": [
        {
          "internalType": "uint8",
          "name": "",
          "type": "uint8"
        }
      ],
      "stateMutability": "pure",
      "type": "function"
    },
    {
      "inputs": [],
      "name": "maxSupply",
      "outputs": [
        {
          "internalType": "uint256",
          "name": "",
          "type": "uint256"
        }
      ],
      "stateMutability": "pure",
      "type": "function"
    },
    {
      "inputs": [
        {
          "internalType": "address",
          "name": "to",
          "type": "address"
        },
        {
          "internalType": "uint256",
          "name": "amount",
          "type": "uint256"
        }
      ],
      "name": "mint",
      "outputs": [],
      "stateMutability": "nonpayable",
      "type": "function"
    },
    {
      "inputs": [],
      "name": "name",
      "outputs": [
        {
          "internalType": "string",
          "name": "",
          "type": "string"
        }
      ],
      "stateMutability": "view",
      "type": "function"
    },
    {
      "inputs": [],
      "name": "owner",
      "outputs": [
        {
          "internalType": "address",
          "name": "",
          "type": "address"
        }
      ],
      "stateMutability": "view",
      "type": "function"
    },
    {
      "inputs": [],
      "name": "renounceOwnership",
      "outputs": [],
      "stateMutability": "nonpayable",
      "type": "function"
    },
    {
      "inputs": [],
      "name": "symbol",
      "outputs": [
        {
          "internalType": "string",
          "name": "",
          "type": "string"
        }
      ],
      "stateMutability": "view",
      "type": "function"
    },
    {
      "inputs": [],
      "name": "totalSupply",
      "outputs": [
        {
          "internalType": "uint256",
          "name": "",
          "type": "uint256"
        }
      ],
      "stateMutability": "view",
      "type": "function"
    },
    {
      "inputs": [
        {
          "internalType": "address",
          "name": "to",
          "type": "address"
        },
        {
          "internalType": "uint256",
          "name": "value",
          "type": "uint256"
        }
      ],
      "name": "transfer",
      "outputs": [
        {
          "internalType": "bool",
          "name": "",
          "type": "bool"
        }
      ],
      "stateMutability": "nonpayable",
      "type": "function"
    },
    {
      "inputs": [
        {
          "internalType": "address",
          "name": "from",
          "type": "address"
        },
        {
          "internalType": "address",
          "name": "to",
          "type": "address"
        },
        {
          "internalType": "uint256",
          "name": "value",
          "type": "uint256"
        }
      ],
      "name": "transferFrom",
      "outputs": [
        {
          "internalType": "bool",
          "name": "",
          "type": "bool"
        }
      ],
      "stateMutability": "nonpayable",
      "type": "function"
    },
    {
      "inputs": [
        {
          "internalType": "address",
          "name": "newOwner",
          "type": "address"
        }
      ],
      "name": "transferOwnership",
      "outputs": [],
      "stateMutability": "nonpayable",
      "type": "function"
    }
  ],
  "bytecode": "0x60806040523480156200001157600080fd5b506040516200126538038062001265833981016040819052620000349162000312565b806040518060400160405280600c81526020016b2920a82220a7902a37b5b2b760a11b8152506040518060400160405280600381526020016205241560ec1b8152508160039081620000879190620003e9565b506004620000968282620003e9565b5050506001600160a01b038116620000c957604051631e4fbdf760e01b8152600060048201526024015b60405180910390fd5b620000d4816200014f565b506000620000e56012600a620005ca565b620000f5906305f5e100620005db565b9050620001038282620001a1565b816001600160a01b03167f3f2c9d57c068687834f0de942a9babb9e5acab57d516d3480a3c16ee165a4273826040516200013f91815260200190565b60405180910390a250506200060b565b600580546001600160a01b038381166001600160a01b0319831681179093556040519116919082907f8be0079c531659141344cd1fd0a4f28419497f9722a3daafe3b4186f6b6457e090600090a35050565b6001600160a01b038216620001cd5760405163ec442f0560e01b815260006004820152602401620000c0565b620001db60008383620001df565b5050565b6001600160a01b0383166200020e578060026000828254620002029190620005f5565b90915550620002829050565b6001600160a01b03831660009081526020819052604090205481811015620002635760405163391434e360e21b81526001600160a01b03851660048201526024810182905260448101839052606401620000c0565b6001600160a01b03841660009081526020819052604090209082900390555b6001600160a01b038216620002a057600280548290039055620002bf565b6001600160a01b03821660009081526020819052604090208054820190555b816001600160a01b0316836001600160a01b03167fddf252ad1be2c89b69c2b068fc378daa952ba7f163c4a11628f55a4df523b3ef836040516200030591815260200190565b60405180910390a3505050565b6000602082840312156200032557600080fd5b81516001600160a01b03811681146200033d57600080fd5b9392505050565b634e487b7160e01b600052604160045260246000fd5b600181811c908216806200036f57607f821691505b6020821081036200039057634e487b7160e01b600052602260045260246000fd5b50919050565b601f821115620003e457600081815260208120601f850160051c81016020861015620003bf5750805b601f850160051c820191505b81811015620003e057828155600101620003cb565b5050505b505050565b81516001600160401b0381111562000405576200040562000344565b6200041d816200041684546200035a565b8462000396565b602080601f8311600181146200045557600084156200043c5750858301515b600019600386901b1c1916600185901b178555620003e0565b600085815260208120601f198616915b82811015620004865788860151825594840194600190910190840162000465565b5085821015620004a55787850151600019600388901b60f8161c191681555b5050505050600190811b01905550565b634e487b7160e01b600052601160045260246000fd5b600181815b808511156200050c578160001904821115620004f057620004f0620004b5565b80851615620004fe57918102915b93841c9390800290620004d0565b509250929050565b6000826200052557506001620005c4565b816200053457506000620005c4565b81600181146200054d5760028114620005585762000578565b6001915050620005c4565b60ff8411156200056c576200056c620004b5565b50506001821b620005c4565b5060208310610133831016604e8410600b84101617156200059d575081810a620005c4565b620005a98383620004cb565b8060001904821115620005c057620005c0620004b5565b0290505b92915050565b60006200033d60ff84168362000514565b8082028115828204841417620005c457620005c4620004b5565b80820180821115620005c457620005c4620004b5565b610c4a806200061b6000396000f3fe608060405234801561001057600080fd5b50600436106101005760003560e01c8063715018a611610097578063a9059cbb11610066578063a9059cbb14610209578063d5abeb011461021c578063dd62ed3e14610224578063f2fde38b1461025d57600080fd5b8063715018a6146101cb57806379cc6790146101d35780638da5cb5b146101e657806395d89b411461020157600080fd5b8063313ce567116100d3578063313ce5671461016b57806340c10f191461017a57806342966c681461018f57806370a08231146101a257600080fd5b806306fdde0314610105578063095ea7b31461012357806318160ddd1461014657806323b872dd14610158575b600080fd5b61010d610270565b60405161011a9190610969565b60405180910390f35b6101366101313660046109d3565b610302565b604051901515815260200161011a565b6002545b60405190815260200161011a565b6101366101663660046109fd565b61031c565b6040516012815260200161011a565b61018d6101883660046109d3565b610340565b005b61018d61019d366004610a39565b610469565b61014a6101b0366004610a52565b6001600160a01b031660009081526020819052604090205490565b61018d6104ab565b61018d6101e13660046109d3565b6104bf565b6005546040516001600160a01b03909116815260200161011a565b61010d61050f565b6101366102173660046109d3565b61051e565b61014a61052c565b61014a610232366004610a74565b6001600160a01b03918216600090815260016020908152604080832093909416825291909152205490565b61018d61026b366004610a52565b61054d565b60606003805461027f90610aa7565b80601f01602080910402602001604051908101604052809291908181526020018280546102ab90610aa7565b80156102f85780601f106102cd576101008083540402835291602001916102f8565b820191906000526020600020905b8154815290600101906020018083116102db57829003601f168201915b5050505050905090565b60003361031081858561058b565b60019150505b92915050565b60003361032a85828561059d565b61033585858561061c565b506001949350505050565b61034861067b565b6001600160a01b0382166103a35760405162461bcd60e51b815260206004820152601b60248201527f43616e6e6f74206d696e7420746f207a65726f2061646472657373000000000060448201526064015b60405180910390fd5b6103af6012600a610bdb565b6103bd90633b9aca00610bea565b816103c760025490565b6103d19190610c01565b11156104185760405162461bcd60e51b815260206004820152601660248201527545786365656473206d6178696d756d20737570706c7960501b604482015260640161039a565b61042282826106a8565b816001600160a01b03167f3f2c9d57c068687834f0de942a9babb9e5acab57d516d3480a3c16ee165a42738260405161045d91815260200190565b60405180910390a25050565b61047333826106e2565b60405181815233907ffd38818f5291bf0bb3a2a48aadc06ba8757865d1dabd804585338aab3009dcb69060200160405180910390a250565b6104b361067b565b6104bd6000610718565b565b6104ca82338361059d565b6104d482826106e2565b816001600160a01b03167ffd38818f5291bf0bb3a2a48aadc06ba8757865d1dabd804585338aab3009dcb68260405161045d91815260200190565b60606004805461027f90610aa7565b60003361031081858561061c565b600061053a6012600a610bdb565b61054890633b9aca00610bea565b905090565b61055561067b565b6001600160a01b03811661057f57604051631e4fbdf760e01b81526000600482015260240161039a565b61058881610718565b50565b610598838383600161076a565b505050565b6001600160a01b03838116600090815260016020908152604080832093861683529290522054600019811015610616578181101561060757604051637dc7a0d960e11b81526001600160a01b0384166004820152602481018290526044810183905260640161039a565b6106168484848403600061076a565b50505050565b6001600160a01b03831661064657604051634b637e8f60e11b81526000600482015260240161039a565b6001600160a01b0382166106705760405163ec442f0560e01b81526000600482015260240161039a565b61059883838361083f565b6005546001600160a01b031633146104bd5760405163118cdaa760e01b815233600482015260240161039a565b6001600160a01b0382166106d25760405163ec442f0560e01b81526000600482015260240161039a565b6106de6000838361083f565b5050565b6001600160a01b03821661070c57604051634b637e8f60e11b81526000600482015260240161039a565b6106de8260008361083f565b600580546001600160a01b038381166001600160a01b0319831681179093556040519116919082907f8be0079c531659141344cd1fd0a4f28419497f9722a3daafe3b4186f6b6457e090600090a35050565b6001600160a01b0384166107945760405163e602df0560e01b81526000600482015260240161039a565b6001600160a01b0383166107be57604051634a1406b160e11b81526000600482015260240161039a565b6001600160a01b038085166000908152600160209081526040808320938716835292905220829055801561061657826001600160a01b0316846001600160a01b03167f8c5be1e5ebec7d5bd14f71427d1e84f3dd0314c0f7b2291e5b200ac8c7c3b9258460405161083191815260200190565b60405180910390a350505050565b6001600160a01b03831661086a57806002600082825461085f9190610c01565b909155506108dc9050565b6001600160a01b038316600090815260208190526040902054818110156108bd5760405163391434e360e21b81526001600160a01b0385166004820152602481018290526044810183905260640161039a565b6001600160a01b03841660009081526020819052604090209082900390555b6001600160a01b0382166108f857600280548290039055610917565b6001600160a01b03821660009081526020819052604090208054820190555b816001600160a01b0316836001600160a01b03167fddf252ad1be2c89b69c2b068fc378daa952ba7f163c4a11628f55a4df523b3ef8360405161095c91815260200190565b60405180910390a3505050565b600060208083528351808285015260005b818110156109965785810183015185820160400152820161097a565b506000604082860101526040601f19601f8301168501019250505092915050565b80356001600160a01b03811681146109ce57600080fd5b919050565b600080604083850312156109e657600080fd5b6109ef836109b7565b946020939093013593505050565b600080600060608486031215610a1257600080fd5b610a1b846109b7565b9250610a29602085016109b7565b9150604084013590509250925092565b600060208284031215610a4b57600080fd5b5035919050565b600060208284031215610a6457600080fd5b610a6d826109b7565b9392505050565b60008060408385031215610a8757600080fd5b610a90836109b7565b9150610a9e602084016109b7565b90509250929050565b600181811c90821680610abb57607f821691505b602082108103610adb57634e487b7160e01b600052602260045260246000fd5b50919050565b634e487b7160e01b600052601160045260246000fd5b600181815b80851115610b32578160001904821115610b1857610b18610ae1565b80851615610b2557918102915b93841c9390800290610afc565b509250929050565b600082610b4957506001610316565b81610b5657506000610316565b8160018114610b6c5760028114610b7657610b92565b6001915050610316565b60ff841115610b8757610b87610ae1565b50506001821b610316565b5060208310610133831016604e8410600b8410161715610bb5575081810a610316565b610bbf8383610af7565b8060001904821115610bd357610bd3610ae1565b029392505050565b6000610a6d60ff841683610b3a565b808202811582820484141761031657610316610ae1565b8082018082111561031657610316610ae156fea2646970667358221220441c4e5256488ddb28f60ca9f91d5a7a8b2af9d3c5b07c9cc22789eab12aa7f264736f6c63430008140033",
  "linkReferences": {},
  "deployedLinkReferences": {}
}